S0140000495272656D6F74654C4544732E73726563A1
S11300000C943C000C9459000C9459000C94590025
S11300100C9459000C9459000C9459000C945900F8
S11300200C9459000C9459000C9427010C94590019
S11300300C9459000C947D020C9459000C945900B2
S11300400C9459000C9459000C9459000C945900C8
S11300500C9459000C9459000C9459000C945900B8
S11300600C9459000C945900ED03F003F503FA03C2
S1130070FF03040409040E0411241FBECFEFD8E0CB
S1130080DEBFCDBF11E0A0E0B1E0EAEDFBE002C0CD
S113009005900D92AA30B107D9F721E0AAE0B1E0AA
S11300A001C01D92A932B207E1F70E9483040C94A7
S11300B0EB050C9400001092250110922601109279
S11300C027011092280110921E0110921B01109218
S11300D01D01089584B18E7F84B985B18D7F85B962
S11300E084B1826084B9E1E8F0E080E880838081B3
S11300F08360808381E280936F0078940895CF9326
S11301008091200180931F0190911D01993009F085
S11301107AC0813089F58091250190912601A091C2
S11301202701B09128010097A105B10509F45FC02A
S113013090932401809323014A2F50E0509322018D
S1130140409321012B2F2095BC0177278827809588
S113015090956817790729F470932401609323011B
S113016003C082E080931F01822F90E04817590753
S113017009F43FC0C0E042C08330E9F58091250115
S113018090912601A0912701B0912801AC01BD01F5
S1130190689415F876956795579547951694D1F711
S11301A04F71552750932401409323019C012F73D1
S11301B033273093220120932101AC01BD01032E8A
S11301C03BE076956795579547953A95D1F7302D4D
S11301D0417040931C0194FD10C084E080931F0182
S11301E020643093220120932101C1E007C0C1E0C3
S11301F005C0C1E003C0C0E001C0C1E010921D0110
S11302000E945B0001C0C0E0CC2311F081E001C07A
S113021080E0CF9108952091230130912401FC01C5
S1130220318320838091210190912201FB019183EC
S113023080831092220110922101109224011092C5
S11302402301089580911A0110921A0108951F92B2
S11302500F920FB60F921124EF92FF920F931F93F8
S11302602F933F934F935F936F937F938F939F93BA
S1130270AF93BF93CF93EF93FF9380911D01893088
S113028009F425C12091180130911901809186004B
S1130290909187009093190180931801E1E8F0E0B0
S11302A0908180E489278083C081C0748091170184
S11302B0882359F06091180170911901621B730B26
S11302C0615071091092170106C060911801709174
S11302D01901621B730B80E090E00E94EA042DEB8D
S11302E037E346E856E30E94500520E034E244E751
S11302F059E40E9450050E94BB049B0169390AE33A
S1130300700718F00E945B00E2C040911D0141306B
S1130310A9F138F0473009F44EC0483009F4D4C08C
S1130320D6C01092200141E040931D01AB01495217
S113033053424B32514020F481E080932001C7C0E6
S1130340C111C5C06137734008F4C1C0243D83E0C6
S1130350380708F0BCC083E08093200187E08093D5
S11303601D018DE080931E012D3D354008F4AFC082
S113037080911B018F5F80931B01A9C020912001F4
S1130380213009F0A4C09B012D5C30412B32314057
S113039020F487E080931D019AC0AB01415D574072
S11303A04B32514008F093C081E080931A0189E0F8
S11303B080931D018CC0809120018130A1F5CC2354
S11303C009F485C021F12D3D354008F181E090E02C
S11303D0A0E0B0E000901E0104C0880F991FAA1F7E
S11303E0BB1F0A94D2F740912501509126016091D8
S11303F0270170912801842B952BA62BB72B809372
S1130400250190932601A0932701B09328018091A0
S11304101E018F5F80931E01803208F458C088E06B
S113042080931D0154C0833009F051C080911B0199
S11304308F5F80931B01823060F110921B018091C9
S11304401E01815080931E01C11123C041E050E080
S113045060E070E07A018B0104C0EE0CFF1C001F09
S1130460111F8A95D2F7D801C701409125015091F7
S113047026016091270170912801842B952BA62BCE
S1130480B72B8093250190932601A0932701B09365
S113049028012D3D354028F080911B018F5F80930A
S11304A01B0180911E01813049F490911B01913010
S11304B029F4C11103C099E090931D01811107C073
S11304C089E080931D0103C089E080931D01FF91A1
S11304D0EF91CF91BF91AF919F918F917F916F9148
S11304E05F914F913F912F911F910F91FF90EF904A
S11304F00F900FBE0F901F9018951F920F920FB67A
S11305000F9211248F93809117018F5F80931701AD
S11305108F910F900FBE0F901F9018958091150129
S113052090911601019690931601809315010897F6
S1130530C4F080910A0190910B01019690930B01F4
S113054080930A0187E090E090931601809315014F
S113055081E08093140181E090E0909309018093FD
S113056008010895809115019091160101979093C7
S11305701601809315011816190624F0109216011D
S113058010921501E0911501F0911601EE0FFF1F75
S1130590E050FF4F8FEF90E0918380830895809126
S11305A00801909109010196909309018093080133
S11305B004977CF081E090E0909309018093080116
S11305C080910A0190910B01019690930B01809305
S11305D00A01089580911501909116010197909355
S11305E01601809315011816190624F010921601AD
S11305F010921501089580910801909109010197C5
S1130600909309018093080118161906DCF0809173
S11306100A0190910B0118161906A4F423E030E0A6
S11306203093090120930801019790930B01809363
S11306300A011816190634F01092140110920B01D5
S113064010920A0108951092B30017BC18BC1092BE
S1130650B4008AB187798AB984B1877F84B98BB1B0
S11306608B768BB908951816190614F52AB12860EB
S11306702AB9E0EBF0E0208123622083E1EBF0E093
S11306802081216020832FEF2093B40020910C015E
S113069030910D012130310581F420910001209326
S11306A0B400EFE3FCE93197F1F700C0000005C0A6
S11306B01092B4002AB1277F2AB982309105E4F060
S11306C02AB120622AB924B5236224BD25B521604C
S11306D025BD2FEF28BD20910E0130910F0121304F
S11306E0310571F42091020128BDEFE3FCE9319753
S11306F0F1F700C0000004C018BC2AB12F7D2AB94C
S113070083309105E4F02AB120642AB924B5236822
S113071024BD25B5216025BD2FEF27BD20911001F3
S1130720309111012130310571F42091040127BD6C
S1130730EFE3FCE93197F1F700C0000004C017BCF7
S11307402AB12F7B2AB904970CF184B1886084B94B
S1130750E0EBF0E0808183688083E1EBF0E080816E
S1130760816080838FEF8093B30080911201909118
S11307701301019781F4809106018093B3008FE304
S11307809CE90197F1F700C0000005C01092B30086
S113079084B1877F84B98BB18B768BB908959BB173
S11307A09B769BB99BB121E030E002C0220F331F3E
S11307B08A95E2F7292B2BB90895809114018111B0
S11307C032C0E0911501F0911601E830F10508F00E
S11307D04EC0EC5CFF4F0C94E5050E942303089582
S11307E081E090E00E943303089582E090E00E944B
S11307F03303089583E090E00E943303089584E076
S113080090E00E943303089582E090E00E94CF03B9
S1130810089584E090E00E94CF03089587E090E07B
S11308200E94CF03089580910801909109018130BD
S1130830910579F01CF4892B39F0089582309105E3
S113084069F0039781F0089584E090E00E943303F7
S1130850089582E090E00E94CF03089584E090E040
S11308600E94CF03089587E090E00E94CF0308958B
S113087080911401882319F00E94CF0202C00E94C3
S11308808E020E94DD038FE39CE90197F1F700C01B
S113089000000895809115019091160105973CF090
S11308A080911401811103C00E94EA0209C0809161
S11308B01401882319F00E94FB0202C00E94B202B4
S11308C00E94DD038FE39CE90197F1F700C000006B
S11308D008958091150190911601009799F0019760
S11308E0880F991FFC01E050FF4F2EE130E0318367
S11308F02083FC01E45FFE4F21E030E0318320835C
S11309000E94DD030895CF93DF9300D000D0CDB7CC
S1130910DEB71A8219821C821B828AB188668AB960
S113092084B1886084B98AB184698AB90E946A00F2
S11309300E947F008823E1F30E9422018111F8CFF5
S1130940BE016D5F7F4FCE0101960E940B018B812A
S11309509C818531910519F40E943804E9CF8730D0
S1130960910519F40E944A04E3CF8534910501F7F7
S11309700E946904DDCF0E942F0588F09F5798F0EC
S1130980B92F9927B751B0F0E1F0660F771F881F90
S1130990991F1AF0BA95C9F714C0B13091F00E94AA
S11309A04905B1E008950C944905672F782F8827ED
S11309B0B85F39F0B93FCCF3869577956795B395D1
S11309C0D9F73EF490958095709561957F4F8F4F40
S11309D09F4F0895E89409C097FB3EF49095809545
S11309E0709561957F4F8F4F9F4F9923A9F0F92FF1
S11309F096E9BB279395F695879577956795B7956F
S1130A00F111F8CFFAF4BB0F11F460FF1BC06F5F54
S1130A107F4F8F4F9F4F16C0882311F096E911C066
S1130A20772321F09EE8872F762F05C0662371F087
S1130A3096E8862F70E060E02AF09A95660F771F9B
S1130A40881FDAF7880F9695879597F9089557FDCB
S1130A509058440F551F59F05F3F71F04795880F28
S1130A6097FB991F61F09F3F79F0879508951216BF
S1130A7013061406551FF2CF4695F1DF08C016166B
S1130A8017061806991FF1CF86957105610508941C
S1130A900895E894BB2766277727CB0197F9089533
S1130AA00E9463050C94D4050E94C60538F00E9488
S1130AB0CD0520F0952311F00C94BD050C94C305CD
S1130AC011240C944A050E94270570F3959FC1F3E5
S1130AD0950F50E0551F629FF001729FBB27F00DE8
S1130AE0B11D639FAA27F00DB11DAA1F649F66273D
S1130AF0B00DA11D661F829F2227B00DA11D621F8C
S1130B00739FB00DA11D621F839FA00D611D221F45
S1130B10749F3327A00D611D231F849F600D211D29
S1130B20822F762F6A2F11249F5750409AF0F1F0AC
S1130B3088234AF0EE0FFF1FBB1F661F771F881F15
S1130B4091505040A9F79E3F510580F00C94BD058B
S1130B500C944A055F3FE4F3983ED4F38695779569
S1130B606795B795F795E7959F5FC1F7FE2B880FBB
S1130B70911D9695879597F9089597F99F6780E851
S1130B8070E060E008959FEF80EC089500240A94DB
S1130B901616170618060906089500240A94121654
S1130BA01306140605060895092E0394000C11F487
S1130BB0882352F0BB0F40F4BF2B11F460FF04C034
S1130BC06F5F7F4F8F4F9F4F0895EE0FFF1F05906C
S10D0BD0F491E02D0994F894FFCF8E
S10D0BDAFF00FF00FF00FF00010010
S9030000FC
